{
  "_format": "hh-sol-artifact-1",
  "contractName": "Domains",
  "sourceName": "contracts/Domains.sol",
  "abi": [
    {
      "inputs": [
        {
          "internalType": "string",
          "name": "_tld",
          "type": "string"
        }
      ],
      "stateMutability": "payable",
      "type": "constructor"
    },
    {
      "inputs": [],
      "name": "AlreadyRegistered",
      "type": "error"
    },
    {
      "inputs": [
        {
          "internalType": "string",
          "name": "name",
          "type": "string"
        }
      ],
      "name": "InvalidName",
      "type": "error"
    },
    {
      "inputs": [
        {
          "internalType": "string",
          "name": "role",
          "type": "string"
        }
      ],
      "name": "InvalidRole",
      "type": "error"
    },
    {
      "inputs": [],
      "name": "Unauthorized",
      "type": "error"
    },
    {
      "anonymous": false,
      "inputs": [
        {
          "indexed": true,
          "internalType": "address",
          "name": "owner",
          "type": "address"
        },
        {
          "indexed": true,
          "internalType": "address",
          "name": "approved",
          "type": "address"
        },
        {
          "indexed": true,
          "internalType": "uint256",
          "name": "tokenId",
          "type": "uint256"
        }
      ],
      "name": "Approval",
      "type": "event"
    },
    {
      "anonymous": false,
      "inputs": [
        {
          "indexed": true,
          "internalType": "address",
          "name": "owner",
          "type": "address"
        },
        {
          "indexed": true,
          "internalType": "address",
          "name": "operator",
          "type": "address"
        },
        {
          "indexed": false,
          "internalType": "bool",
          "name": "approved",
          "type": "bool"
        }
      ],
      "name": "ApprovalForAll",
      "type": "event"
    },
    {
      "anonymous": false,
      "inputs": [
        {
          "indexed": true,
          "internalType": "address",
          "name": "from",
          "type": "address"
        },
        {
          "indexed": true,
          "internalType": "address",
          "name": "to",
          "type": "address"
        },
        {
          "indexed": true,
          "internalType": "uint256",
          "name": "tokenId",
          "type": "uint256"
        }
      ],
      "name": "Transfer",
      "type": "event"
    },
    {
      "inputs": [
        {
          "internalType": "address",
          "name": "to",
          "type": "address"
        },
        {
          "internalType": "uint256",
          "name": "tokenId",
          "type": "uint256"
        }
      ],
      "name": "approve",
      "outputs": [],
      "stateMutability": "nonpayable",
      "type": "function"
    },
    {
      "inputs": [
        {
          "internalType": "address",
          "name": "owner",
          "type": "address"
        }
      ],
      "name": "balanceOf",
      "outputs": [
        {
          "internalType": "uint256",
          "name": "",
          "type": "uint256"
        }
      ],
      "stateMutability": "view",
      "type": "function"
    },
    {
      "inputs": [
        {
          "internalType": "uint256",
          "name": "tokenId",
          "type": "uint256"
        }
      ],
      "name": "burn",
      "outputs": [],
      "stateMutability": "nonpayable",
      "type": "function"
    },
    {
      "inputs": [
        {
          "internalType": "string",
          "name": "",
          "type": "string"
        }
      ],
      "name": "domains",
      "outputs": [
        {
          "internalType": "address",
          "name": "",
          "type": "address"
        }
      ],
      "stateMutability": "view",
      "type": "function"
    },
    {
      "inputs": [
        {
          "internalType": "string",
          "name": "name",
          "type": "string"
        }
      ],
      "name": "getAddress",
      "outputs": [
        {
          "internalType": "address",
          "name": "",
          "type": "address"
        }
      ],
      "stateMutability": "view",
      "type": "function"
    },
    {
      "inputs": [],
      "name": "getAllNames",
      "outputs": [
        {
          "internalType": "string[]",
          "name": "",
          "type": "string[]"
        }
      ],
      "stateMutability": "view",
      "type": "function"
    },
    {
      "inputs": [
        {
          "internalType": "uint256",
          "name": "tokenId",
          "type": "uint256"
        }
      ],
      "name": "getApproved",
      "outputs": [
        {
          "internalType": "address",
          "name": "",
          "type": "address"
        }
      ],
      "stateMutability": "view",
      "type": "function"
    },
    {
      "inputs": [
        {
          "internalType": "string",
          "name": "name",
          "type": "string"
        }
      ],
      "name": "getRecord",
      "outputs": [
        {
          "internalType": "string",
          "name": "",
          "type": "string"
        }
      ],
      "stateMutability": "view",
      "type": "function"
    },
    {
      "inputs": [
        {
          "internalType": "address",
          "name": "owner",
          "type": "address"
        },
        {
          "internalType": "address",
          "name": "operator",
          "type": "address"
        }
      ],
      "name": "isApprovedForAll",
      "outputs": [
        {
          "internalType": "bool",
          "name": "",
          "type": "bool"
        }
      ],
      "stateMutability": "view",
      "type": "function"
    },
    {
      "inputs": [],
      "name": "isOwner",
      "outputs": [
        {
          "internalType": "bool",
          "name": "",
          "type": "bool"
        }
      ],
      "stateMutability": "view",
      "type": "function"
    },
    {
      "inputs": [],
      "name": "name",
      "outputs": [
        {
          "internalType": "string",
          "name": "",
          "type": "string"
        }
      ],
      "stateMutability": "view",
      "type": "function"
    },
    {
      "inputs": [
        {
          "internalType": "uint256",
          "name": "",
          "type": "uint256"
        }
      ],
      "name": "names",
      "outputs": [
        {
          "internalType": "string",
          "name": "",
          "type": "string"
        }
      ],
      "stateMutability": "view",
      "type": "function"
    },
    {
      "inputs": [],
      "name": "owner",
      "outputs": [
        {
          "internalType": "address payable",
          "name": "",
          "type": "address"
        }
      ],
      "stateMutability": "view",
      "type": "function"
    },
    {
      "inputs": [
        {
          "internalType": "uint256",
          "name": "tokenId",
          "type": "uint256"
        }
      ],
      "name": "ownerOf",
      "outputs": [
        {
          "internalType": "address",
          "name": "",
          "type": "address"
        }
      ],
      "stateMutability": "view",
      "type": "function"
    },
    {
      "inputs": [
        {
          "internalType": "string",
          "name": "name",
          "type": "string"
        }
      ],
      "name": "price",
      "outputs": [
        {
          "internalType": "uint256",
          "name": "",
          "type": "uint256"
        }
      ],
      "stateMutability": "pure",
      "type": "function"
    },
    {
      "inputs": [
        {
          "internalType": "string",
          "name": "",
          "type": "string"
        }
      ],
      "name": "records",
      "outputs": [
        {
          "internalType": "string",
          "name": "",
          "type": "string"
        }
      ],
      "stateMutability": "view",
      "type": "function"
    },
    {
      "inputs": [
        {
          "internalType": "string",
          "name": "name",
          "type": "string"
        }
      ],
      "name": "register",
      "outputs": [],
      "stateMutability": "payable",
      "type": "function"
    },
    {
      "inputs": [],
      "name": "role",
      "outputs": [
        {
          "internalType": "string",
          "name": "",
          "type": "string"
        }
      ],
      "stateMutability": "view",
      "type": "function"
    },
    {
      "inputs": [
        {
          "internalType": "address",
          "name": "from",
          "type": "address"
        },
        {
          "internalType": "address",
          "name": "to",
          "type": "address"
        },
        {
          "internalType": "uint256",
          "name": "tokenId",
          "type": "uint256"
        }
      ],
      "name": "safeTransferFrom",
      "outputs": [],
      "stateMutability": "nonpayable",
      "type": "function"
    },
    {
      "inputs": [
        {
          "internalType": "address",
          "name": "from",
          "type": "address"
        },
        {
          "internalType": "address",
          "name": "to",
          "type": "address"
        },
        {
          "internalType": "uint256",
          "name": "tokenId",
          "type": "uint256"
        },
        {
          "internalType": "bytes",
          "name": "data",
          "type": "bytes"
        }
      ],
      "name": "safeTransferFrom",
      "outputs": [],
      "stateMutability": "nonpayable",
      "type": "function"
    },
    {
      "inputs": [
        {
          "internalType": "address",
          "name": "operator",
          "type": "address"
        },
        {
          "internalType": "bool",
          "name": "approved",
          "type": "bool"
        }
      ],
      "name": "setApprovalForAll",
      "outputs": [],
      "stateMutability": "nonpayable",
      "type": "function"
    },
    {
      "inputs": [
        {
          "internalType": "string",
          "name": "name",
          "type": "string"
        },
        {
          "internalType": "string",
          "name": "record",
          "type": "string"
        }
      ],
      "name": "setRecord",
      "outputs": [],
      "stateMutability": "nonpayable",
      "type": "function"
    },
    {
      "inputs": [
        {
          "internalType": "bytes4",
          "name": "interfaceId",
          "type": "bytes4"
        }
      ],
      "name": "supportsInterface",
      "outputs": [
        {
          "internalType": "bool",
          "name": "",
          "type": "bool"
        }
      ],
      "stateMutability": "view",
      "type": "function"
    },
    {
      "inputs": [],
      "name": "symbol",
      "outputs": [
        {
          "internalType": "string",
          "name": "",
          "type": "string"
        }
      ],
      "stateMutability": "view",
      "type": "function"
    },
    {
      "inputs": [],
      "name": "tld",
      "outputs": [
        {
          "internalType": "string",
          "name": "",
          "type": "string"
        }
      ],
      "stateMutability": "view",
      "type": "function"
    },
    {
      "inputs": [
        {
          "internalType": "uint256",
          "name": "tokenId",
          "type": "uint256"
        }
      ],
      "name": "tokenURI",
      "outputs": [
        {
          "internalType": "string",
          "name": "",
          "type": "string"
        }
      ],
      "stateMutability": "view",
      "type": "function"
    },
    {
      "inputs": [
        {
          "internalType": "address",
          "name": "from",
          "type": "address"
        },
        {
          "internalType": "address",
          "name": "to",
          "type": "address"
        },
        {
          "internalType": "uint256",
          "name": "tokenId",
          "type": "uint256"
        }
      ],
      "name": "transferFrom",
      "outputs": [],
      "stateMutability": "nonpayable",
      "type": "function"
    },
    {
      "inputs": [
        {
          "internalType": "string",
          "name": "name",
          "type": "string"
        }
      ],
      "name": "valid",
      "outputs": [
        {
          "internalType": "bool",
          "name": "",
          "type": "bool"
        }
      ],
      "stateMutability": "pure",
      "type": "function"
    },
    {
      "inputs": [],
      "name": "withdraw",
      "outputs": [],
      "stateMutability": "nonpayable",
      "type": "function"
    }
  ],
  "bytecode": "0x608060405260405180610940016040528061090d8152602001620057b161090d9139600a90805190602001906200003892919062000287565b506040518060400160405280600d81526020017f3c2f746578743e3c2f7376673e00000000000000000000000000000000000000815250600b90805190602001906200008692919062000287565b50604051620060be380380620060be8339818101604052810190620000ac9190620004d4565b6040518060400160405280600781526020017f537562706f7274000000000000000000000000000000000000000000000000008152506040518060400160405280600581526020017f534250525400000000000000000000000000000000000000000000000000000081525081600090805190602001906200013092919062000287565b5080600190805190602001906200014992919062000287565b50505080600890805190602001906200016492919062000287565b50620001b16040518060400160405280601881526020017f2573206e616d652073657276696365206465706c6f796564000000000000000081525082620001b860201b62001c9f1760201c565b5062000622565b6200025a8282604051602401620001d192919062000582565b6040516020818303038152906040527f4b5c4277000000000000000000000000000000000000000000000000000000007bffffffffffffffffffffffffffffffffffffffffffffffffffffffff19166020820180517bffffffffffffffffffffffffffffffffffffffffffffffffffffffff83818316178352505050506200025e60201b60201c565b5050565b60008151905060006a636f6e736f6c652e6c6f679050602083016000808483855afa5050505050565b8280546200029590620005ec565b90600052602060002090601f016020900481019282620002b9576000855562000305565b82601f10620002d457805160ff191683800117855562000305565b8280016001018555821562000305579182015b8281111562000304578251825591602001919060010190620002e7565b5b50905062000314919062000318565b5090565b5b808211156200033357600081600090555060010162000319565b5090565b6000604051905090565b600080fd5b600080fd5b600080fd5b600080fd5b6000601f19601f8301169050919050565b7f4e487b7100000000000000000000000000000000000000000000000000000000600052604160045260246000fd5b620003a08262000355565b810181811067ffffffffffffffff82111715620003c257620003c162000366565b5b80604052505050565b6000620003d762000337565b9050620003e5828262000395565b919050565b600067ffffffffffffffff82111562000408576200040762000366565b5b620004138262000355565b9050602081019050919050565b60005b838110156200044057808201518184015260208101905062000423565b8381111562000450576000848401525b50505050565b60006200046d6200046784620003ea565b620003cb565b9050828152602081018484840111156200048c576200048b62000350565b5b6200049984828562000420565b509392505050565b600082601f830112620004b957620004b86200034b565b5b8151620004cb84826020860162000456565b91505092915050565b600060208284031215620004ed57620004ec62000341565b5b600082015167ffffffffffffffff8111156200050e576200050d62000346565b5b6200051c84828501620004a1565b91505092915050565b600081519050919050565b600082825260208201905092915050565b60006200054e8262000525565b6200055a818562000530565b93506200056c81856020860162000420565b620005778162000355565b840191505092915050565b600060408201905081810360008301526200059e818562000541565b90508181036020830152620005b4818462000541565b90509392505050565b7f4e487b7100000000000000000000000000000000000000000000000000000000600052602260045260246000fd5b600060028204905060018216806200060557607f821691505b602082108114156200061c576200061b620005bd565b5b50919050565b61517f80620006326000396000f3fe6080604052600436106101c25760003560e01c80636352211e116100f7578063b88d4fde11610095578063e985e9c511610064578063e985e9c51461069e578063f2c298be146106db578063fb825e5f146106f7578063fe2c619814610722576101c2565b8063b88d4fde146105d2578063bf40fac1146105fb578063c1880a9814610638578063c87b56dd14610661576101c2565b80638f32d59b116100d15780638f32d59b1461051657806395d89b41146105415780639791c0971461056c578063a22cb465146105a9576101c2565b80636352211e1461047157806370a08231146104ae5780638da5cb5b146104eb576101c2565b8063264492351161016457806342842e0e1161013e57806342842e0e146103a557806342966c68146103ce5780634622ab03146103f7578063541e771d14610434576101c2565b806326449235146103265780632d551432146103635780633ccfd60b1461038e576101c2565b8063095ea7b3116101a0578063095ea7b31461026c57806310055c1d1461029557806311dd8845146102c057806323b872dd146102fd576101c2565b806301ffc9a7146101c757806306fdde0314610204578063081812fc1461022f575b600080fd5b3480156101d357600080fd5b506101ee60048036038101906101e991906134da565b61075f565b6040516101fb9190613522565b60405180910390f35b34801561021057600080fd5b50610219610841565b60405161022691906135d6565b60405180910390f35b34801561023b57600080fd5b506102566004803603810190610251919061362e565b6108d3565b604051610263919061369c565b60405180910390f35b34801561027857600080fd5b50610293600480360381019061028e91906136e3565b610919565b005b3480156102a157600080fd5b506102aa610a31565b6040516102b791906135d6565b60405180910390f35b3480156102cc57600080fd5b506102e760048036038101906102e29190613788565b610abf565b6040516102f491906135d6565b60405180910390f35b34801561030957600080fd5b50610324600480360381019061031f91906137d5565b610b72565b005b34801561033257600080fd5b5061034d60048036038101906103489190613958565b610bd2565b60405161035a919061369c565b60405180910390f35b34801561036f57600080fd5b50610378610c1b565b60405161038591906135d6565b60405180910390f35b34801561039a57600080fd5b506103a3610ca9565b005b3480156103b157600080fd5b506103cc60048036038101906103c791906137d5565b610d6f565b005b3480156103da57600080fd5b506103f560048036038101906103f0919061362e565b610d8f565b005b34801561040357600080fd5b5061041e6004803603810190610419919061362e565b610df4565b60405161042b91906135d6565b60405180910390f35b34801561044057600080fd5b5061045b60048036038101906104569190613958565b610e94565b60405161046891906135d6565b60405180910390f35b34801561047d57600080fd5b506104986004803603810190610493919061362e565b610f4a565b6040516104a5919061369c565b60405180910390f35b3480156104ba57600080fd5b506104d560048036038101906104d091906139a1565b610fd1565b6040516104e291906139dd565b60405180910390f35b3480156104f757600080fd5b50610500611089565b60405161050d9190613a19565b60405180910390f35b34801561052257600080fd5b5061052b6110af565b6040516105389190613522565b60405180910390f35b34801561054d57600080fd5b50610556611107565b60405161056391906135d6565b60405180910390f35b34801561057857600080fd5b50610593600480360381019061058e9190613788565b611199565b6040516105a09190613522565b60405180910390f35b3480156105b557600080fd5b506105d060048036038101906105cb9190613a60565b61124d565b005b3480156105de57600080fd5b506105f960048036038101906105f49190613b41565b611263565b005b34801561060757600080fd5b50610622600480360381019061061d9190613788565b6112c5565b60405161062f919061369c565b60405180910390f35b34801561064457600080fd5b5061065f600480360381019061065a9190613bc4565b611310565b005b34801561066d57600080fd5b506106886004803603810190610683919061362e565b6113eb565b60405161069591906135d6565b60405180910390f35b3480156106aa57600080fd5b506106c560048036038101906106c09190613c45565b6114fe565b6040516106d29190613522565b60405180910390f35b6106f560048036038101906106f09190613788565b611592565b005b34801561070357600080fd5b5061070c611a97565b6040516107199190613d91565b60405180910390f35b34801561072e57600080fd5b5061074960048036038101906107449190613788565b611c0e565b60405161075691906139dd565b60405180910390f35b60007f80ac58cd000000000000000000000000000000000000000000000000000000007bffffffffffffffffffffffffffffffffffffffffffffffffffffffff1916827bffffffffffffffffffffffffffffffffffffffffffffffffffffffff1916148061082a57507f5b5e139f000000000000000000000000000000000000000000000000000000007bffffffffffffffffffffffffffffffffffffffffffffffffffffffff1916827bffffffffffffffffffffffffffffffffffffffffffffffffffffffff1916145b8061083a575061083982611d3b565b5b9050919050565b60606000805461085090613de2565b80601f016020809104026020016040519081016040528092919081815260200182805461087c90613de2565b80156108c95780601f1061089e576101008083540402835291602001916108c9565b820191906000526020600020905b8154815290600101906020018083116108ac57829003601f168201915b5050505050905090565b60006108de82611da5565b6004600083815260200190815260200160002060009054906101000a900473ffffffffffffffffffffffffffffffffffffffff169050919050565b600061092482610f4a565b90508073ffffffffffffffffffffffffffffffffffffffff168373ffffffffffffffffffffffffffffffffffffffff161415610995576040517f08c379a000000000000000000000000000000000000000000000000000000000815260040161098c90613e86565b60405180910390fd5b8073ffffffffffffffffffffffffffffffffffffffff166109b4611df0565b73ffffffffffffffffffffffffffffffffffffffff1614806109e357506109e2816109dd611df0565b6114fe565b5b610a22576040517f08c379a0000000000000000000000000000000000000000000000000000000008152600401610a1990613f18565b60405180910390fd5b610a2c8383611df8565b505050565b60098054610a3e90613de2565b80601f0160208091040260200160405190810160405280929190818152602001828054610a6a90613de2565b8015610ab75780601f10610a8c57610100808354040283529160200191610ab7565b820191906000526020600020905b815481529060010190602001808311610a9a57829003601f168201915b505050505081565b6060600d8383604051610ad3929190613f68565b90815260200160405180910390208054610aec90613de2565b80601f0160208091040260200160405190810160405280929190818152602001828054610b1890613de2565b8015610b655780601f10610b3a57610100808354040283529160200191610b65565b820191906000526020600020905b815481529060010190602001808311610b4857829003601f168201915b5050505050905092915050565b610b83610b7d611df0565b82611eb1565b610bc2576040517f08c379a0000000000000000000000000000000000000000000000000000000008152600401610bb990613ff3565b60405180910390fd5b610bcd838383611f46565b505050565b600c818051602081018201805184825260208301602085012081835280955050505050506000915054906101000a900473ffffffffffffffffffffffffffffffffffffffff1681565b60088054610c2890613de2565b80601f0160208091040260200160405190810160405280929190818152602001828054610c5490613de2565b8015610ca15780601f10610c7657610100808354040283529160200191610ca1565b820191906000526020600020905b815481529060010190602001808311610c8457829003601f168201915b505050505081565b610cb16110af565b610cba57600080fd5b600047905060003373ffffffffffffffffffffffffffffffffffffffff1682604051610ce590614044565b60006040518083038185875af1925050503d8060008114610d22576040519150601f19603f3d011682016040523d82523d6000602084013e610d27565b606091505b5050905080610d6b576040517f08c379a0000000000000000000000000000000000000000000000000000000008152600401610d62906140a5565b60405180910390fd5b5050565b610d8a83838360405180602001604052806000815250611263565b505050565b610d976110af565b610da057600080fd5b610da981612240565b610de8576040517f08c379a0000000000000000000000000000000000000000000000000000000008152600401610ddf90614111565b60405180910390fd5b610df181612281565b50565b600e6020528060005260406000206000915090508054610e1390613de2565b80601f0160208091040260200160405190810160405280929190818152602001828054610e3f90613de2565b8015610e8c5780601f10610e6157610100808354040283529160200191610e8c565b820191906000526020600020905b815481529060010190602001808311610e6f57829003601f168201915b505050505081565b600d818051602081018201805184825260208301602085012081835280955050505050506000915090508054610ec990613de2565b80601f0160208091040260200160405190810160405280929190818152602001828054610ef590613de2565b8015610f425780601f10610f1757610100808354040283529160200191610f42565b820191906000526020600020905b815481529060010190602001808311610f2557829003601f168201915b505050505081565b600080610f56836122d4565b9050600073ffffffffffffffffffffffffffffffffffffffff168173ffffffffffffffffffffffffffffffffffffffff161415610fc8576040517f08c379a0000000000000000000000000000000000000000000000000000000008152600401610fbf9061417d565b60405180910390fd5b80915050919050565b60008073ffffffffffffffffffffffffffffffffffffffff168273ffffffffffffffffffffffffffffffffffffffff161415611042576040517f08c379a00000000000000000000000000000000000000000000000000000000081526004016110399061420f565b60405180910390fd5b600360008373ffffffffffffffffffffffffffffffffffffffff1673ffffffffffffffffffffffffffffffffffffffff168152602001908152602001600020549050919050565b600f60009054906101000a900473ffffffffffffffffffffffffffffffffffffffff1681565b6000600f60009054906101000a900473ffffffffffffffffffffffffffffffffffffffff1673ffffffffffffffffffffffffffffffffffffffff163373ffffffffffffffffffffffffffffffffffffffff1614905090565b60606001805461111690613de2565b80601f016020809104026020016040519081016040528092919081815260200182805461114290613de2565b801561118f5780601f106111645761010080835404028352916020019161118f565b820191906000526020600020905b81548152906001019060200180831161117257829003601f168201915b5050505050905090565b600060036111ea84848080601f016020809104026020016040519081016040528093929190818152602001838380828437600081840152601f19601f82011690508083019250505050505050612311565b101580156112455750601261124284848080601f016020809104026020016040519081016040528093929190818152602001838380828437600081840152601f19601f82011690508083019250505050505050612311565b11155b905092915050565b61125f611258611df0565b83836124c6565b5050565b61127461126e611df0565b83611eb1565b6112b3576040517f08c379a00000000000000000000000000000000000000000000000000000000081526004016112aa90613ff3565b60405180910390fd5b6112bf84848484612633565b50505050565b6000600c83836040516112d9929190613f68565b908152602001604051809103902060009054906101000a900473ffffffffffffffffffffffffffffffffffffffff16905092915050565b600c8484604051611322929190613f68565b908152602001604051809103902060009054906101000a900473ffffffffffffffffffffffffffffffffffffffff1673ffffffffffffffffffffffffffffffffffffffff163373ffffffffffffffffffffffffffffffffffffffff16146113b5576040517f82b4290000000000000000000000000000000000000000000000000000000000815260040160405180910390fd5b8181600d86866040516113c9929190613f68565b908152602001604051809103902091906113e4929190613305565b5050505050565b60606113f682611da5565b600060066000848152602001908152602001600020805461141690613de2565b80601f016020809104026020016040519081016040528092919081815260200182805461144290613de2565b801561148f5780601f106114645761010080835404028352916020019161148f565b820191906000526020600020905b81548152906001019060200180831161147257829003601f168201915b5050505050905060006114a061268f565b90506000815114156114b65781925050506114f9565b6000825111156114eb5780826040516020016114d3929190614260565b604051602081830303815290604052925050506114f9565b6114f4846126a6565b925050505b919050565b6000600560008473ffffffffffffffffffffffffffffffffffffffff1673ffffffffffffffffffffffffffffffffffffffff16815260200190815260200160002060008373ffffffffffffffffffffffffffffffffffffffff1673ffffffffffffffffffffffffffffffffffffffff16815260200190815260200160002060009054906101000a900460ff16905092915050565b600073ffffffffffffffffffffffffffffffffffffffff16600c83836040516115bc929190613f68565b908152602001604051809103902060009054906101000a900473ffffffffffffffffffffffffffffffffffffffff1673ffffffffffffffffffffffffffffffffffffffff1614611638576040517f3a81d6fc00000000000000000000000000000000000000000000000000000000815260040160405180910390fd5b6116428282611199565b6116855781816040517f7f19f48d00000000000000000000000000000000000000000000000000000000815260040161167c9291906142b1565b60405180910390fd5b6040518060400160405280600781526020017f63726561746f72000000000000000000000000000000000000000000000000008152508051906020012060096040516116d19190614369565b60405180910390201415801561173957506040518060400160405280600981526020017f636f6c6c6563746f72000000000000000000000000000000000000000000000081525080519060200120600960405161172e9190614369565b604051809103902014155b1561177c5760096040517f9ec7f39a0000000000000000000000000000000000000000000000000000000081526004016117739190614415565b60405180910390fd5b60006117888383611c0e565b9050803410156117cd576040517f08c379a00000000000000000000000000000000000000000000000000000000081526004016117c490614483565b60405180910390fd5b6000838360086040516020016117e59392919061456e565b60405160208183030381529060405290506000600a82600b60405160200161180f9392919061459f565b6040516020818303038152906040529050600061182c600761270e565b9050600061187d87878080601f016020809104026020016040519081016040528093929190818152602001838380828437600081840152601f19601f82011690508083019250505050505050612311565b9050600061188a8261271c565b90506118f36040518060600160405280602e815260200161511c602e913989898080601f016020809104026020016040519081016040528093929190818152602001838380828437600081840152601f19601f82011690508083019250505050505050856127f4565b600061192c8661190287612893565b8460096040516020016119189493929190614798565b604051602081830303815290604052612893565b90506000816040516020016119419190614859565b604051602081830303815290604052905061197360405180606001604052806039815260200161503560399139612a2b565b6119b26040518060400160405280600e81526020017f46696e616c20746f6b656e55524900000000000000000000000000000000000081525082611c9f565b6119d360405180606001604052806039815260200161506e60399139612a2b565b6119dd3386612ac4565b6119ff856040518060600160405280603581526020016150e760359139612ae2565b33600c8b8b604051611a12929190613f68565b908152602001604051809103902060006101000a81548173ffffffffffffffffffffffffffffffffffffffff021916908373ffffffffffffffffffffffffffffffffffffffff1602179055508989600e60008881526020019081526020016000209190611a80929190613305565b50611a8b6007612b56565b50505050505050505050565b6060611ad76040518060400160405280601f81526020017f47657474696e6720616c6c206e616d65732066726f6d20636f6e747261637400815250612a2b565b6000611ae3600761270e565b67ffffffffffffffff811115611afc57611afb61382d565b5b604051908082528060200260200182016040528015611b2f57816020015b6060815260200190600190039081611b1a5790505b50905060005b611b3f600761270e565b811015611c0657600e60008281526020019081526020016000206009604051602001611b6c929190614913565b604051602081830303815290604052828281518110611b8e57611b8d61494d565b5b6020026020010181905250611bf36040518060400160405280601781526020017f4e616d6520666f7220746f6b656e20256420697320257300000000000000000081525082848481518110611be657611be561494d565b5b6020026020010151612b6c565b8080611bfe906149ab565b915050611b35565b508091505090565b600080611c5e84848080601f016020809104026020016040519081016040528093929190818152602001838380828437600081840152601f19601f82011690508083019250505050505050612311565b905060008111611c6d57600080fd5b6003811415611c80576032915050611c99565b6004811415611c9357601e915050611c99565b600a9150505b92915050565b611d378282604051602401611cb59291906149f4565b6040516020818303038152906040527f4b5c4277000000000000000000000000000000000000000000000000000000007bffffffffffffffffffffffffffffffffffffffffffffffffffffffff19166020820180517bffffffffffffffffffffffffffffffffffffffffffffffffffffffff8381831617835250505050612c0b565b5050565b60007f01ffc9a7000000000000000000000000000000000000000000000000000000007bffffffffffffffffffffffffffffffffffffffffffffffffffffffff1916827bffffffffffffffffffffffffffffffffffffffffffffffffffffffff1916149050919050565b611dae81612240565b611ded576040517f08c379a0000000000000000000000000000000000000000000000000000000008152600401611de49061417d565b60405180910390fd5b50565b600033905090565b816004600083815260200190815260200160002060006101000a81548173ffffffffffffffffffffffffffffffffffffffff021916908373ffffffffffffffffffffffffffffffffffffffff160217905550808273ffffffffffffffffffffffffffffffffffffffff16611e6b83610f4a565b73ffffffffffffffffffffffffffffffffffffffff167f8c5be1e5ebec7d5bd14f71427d1e84f3dd0314c0f7b2291e5b200ac8c7c3b92560405160405180910390a45050565b600080611ebd83610f4a565b90508073ffffffffffffffffffffffffffffffffffffffff168473ffffffffffffffffffffffffffffffffffffffff161480611eff5750611efe81856114fe565b5b80611f3d57508373ffffffffffffffffffffffffffffffffffffffff16611f25846108d3565b73ffffffffffffffffffffffffffffffffffffffff16145b91505092915050565b8273ffffffffffffffffffffffffffffffffffffffff16611f6682610f4a565b73ffffffffffffffffffffffffffffffffffffffff1614611fbc576040517f08c379a0000000000000000000000000000000000000000000000000000000008152600401611fb390614a9d565b60405180910390fd5b600073ffffffffffffffffffffffffffffffffffffffff168273ffffffffffffffffffffffffffffffffffffffff16141561202c576040517f08c379a000000000000000000000000000000000000000000000000000000000815260040161202390614b2f565b60405180910390fd5b6120398383836001612c34565b8273ffffffffffffffffffffffffffffffffffffffff1661205982610f4a565b73ffffffffffffffffffffffffffffffffffffffff16146120af576040517f08c379a00000000000000000000000000000000000000000000000000000000081526004016120a690614a9d565b60405180910390fd5b6004600082815260200190815260200160002060006101000a81549073ffffffffffffffffffffffffffffffffffffffff02191690556001600360008573ffffffffffffffffffffffffffffffffffffffff1673ffffffffffffffffffffffffffffffffffffffff168152602001908152602001600020600082825403925050819055506001600360008473ffffffffffffffffffffffffffffffffffffffff1673ffffffffffffffffffffffffffffffffffffffff16815260200190815260200160002060008282540192505081905550816002600083815260200190815260200160002060006101000a81548173ffffffffffffffffffffffffffffffffffffffff021916908373ffffffffffffffffffffffffffffffffffffffff160217905550808273ffffffffffffffffffffffffffffffffffffffff168473ffffffffffffffffffffffffffffffffffffffff167fddf252ad1be2c89b69c2b068fc378daa952ba7f163c4a11628f55a4df523b3ef60405160405180910390a461223b8383836001612c3a565b505050565b60008073ffffffffffffffffffffffffffffffffffffffff16612262836122d4565b73ffffffffffffffffffffffffffffffffffffffff1614159050919050565b61228a81612c40565b60006006600083815260200190815260200160002080546122aa90613de2565b9050146122d1576006600082815260200190815260200160002060006122d0919061338b565b5b50565b60006002600083815260200190815260200160002060009054906101000a900473ffffffffffffffffffffffffffffffffffffffff169050919050565b60008060008084519050600092505b808210156124bb57600085838151811061233d5761233c61494d565b5b602001015160f81c60f81b9050608060f81b817effffffffffffffffffffffffffffffffffffffffffffffffffffffffffffff1916101561238c576001836123859190614b4f565b92506124a7565b60e060f81b817effffffffffffffffffffffffffffffffffffffffffffffffffffffffffffff191610156123ce576002836123c79190614b4f565b92506124a6565b60f060f81b817effffffffffffffffffffffffffffffffffffffffffffffffffffffffffffff19161015612410576003836124099190614b4f565b92506124a5565b60f8801b817effffffffffffffffffffffffffffffffffffffffffffffffffffffffffffff191610156124515760048361244a9190614b4f565b92506124a4565b60fc60f81b817effffffffffffffffffffffffffffffffffffffffffffffffffffffffffffff191610156124935760058361248c9190614b4f565b92506124a3565b6006836124a09190614b4f565b92505b5b5b5b5b5082806124b3906149ab565b935050612320565b829350505050919050565b8173ffffffffffffffffffffffffffffffffffffffff168373ffffffffffffffffffffffffffffffffffffffff161415612535576040517f08c379a000000000000000000000000000000000000000000000000000000000815260040161252c90614bf1565b60405180910390fd5b80600560008573ffffffffffffffffffffffffffffffffffffffff1673ffffffffffffffffffffffffffffffffffffffff16815260200190815260200160002060008473ffffffffffffffffffffffffffffffffffffffff1673ffffffffffffffffffffffffffffffffffffffff16815260200190815260200160002060006101000a81548160ff0219169083151502179055508173ffffffffffffffffffffffffffffffffffffffff168373ffffffffffffffffffffffffffffffffffffffff167f17307eab39ab6107e8899845ad3d59bd9653f200f220920489ca2b5937696c31836040516126269190613522565b60405180910390a3505050565b61263e848484611f46565b61264a84848484612d8e565b612689576040517f08c379a000000000000000000000000000000000000000000000000000000000815260040161268090614c83565b60405180910390fd5b50505050565b606060405180602001604052806000815250905090565b60606126b182611da5565b60006126bb61268f565b905060008151116126db5760405180602001604052806000815250612706565b806126e58461271c565b6040516020016126f6929190614260565b6040516020818303038152906040525b915050919050565b600081600001549050919050565b60606000600161272b84612f16565b01905060008167ffffffffffffffff81111561274a5761274961382d565b5b6040519080825280601f01601f19166020018201604052801561277c5781602001600182028036833780820191505090505b509050600082602001820190505b6001156127e9578080600190039150507f3031323334353637383961626364656600000000000000000000000000000000600a86061a8153600a85816127d3576127d2614ca3565b5b04945060008514156127e4576127e9565b61278a565b819350505050919050565b61288e83838360405160240161280c93929190614cd2565b6040516020818303038152906040527f5821efa1000000000000000000000000000000000000000000000000000000007bffffffffffffffffffffffffffffffffffffffffffffffffffffffff19166020820180517bffffffffffffffffffffffffffffffffffffffffffffffffffffffff8381831617835250505050612c0b565b505050565b606060008251905060008114156128bc5760405180602001604052806000815250915050612a26565b600060036002836128cd9190614b4f565b6128d79190614d17565b60046128e39190614d48565b905060006020826128f49190614b4f565b67ffffffffffffffff81111561290d5761290c61382d565b5b6040519080825280601f01601f19166020018201604052801561293f5781602001600182028036833780820191505090505b50905060006040518060600160405280604081526020016150a7604091399050600181016020830160005b868110156129e35760038101905062ffffff818a015116603f8160121c168401518060081b905060ff603f83600c1c1686015116810190508060081b905060ff603f8360061c1686015116810190508060081b905060ff603f831686015116810190508060e01b9050808452600484019350505061296a565b5060038606600181146129fd5760028114612a0d57612a18565b613d3d60f01b6002830352612a18565b603d60f81b60018303525b508484525050819450505050505b919050565b612ac181604051602401612a3f91906135d6565b6040516020818303038152906040527f41304fac000000000000000000000000000000000000000000000000000000007bffffffffffffffffffffffffffffffffffffffffffffffffffffffff19166020820180517bffffffffffffffffffffffffffffffffffffffffffffffffffffffff8381831617835250505050612c0b565b50565b612ade828260405180602001604052806000815250613069565b5050565b612aeb82612240565b612b2a576040517f08c379a0000000000000000000000000000000000000000000000000000000008152600401612b2190614e14565b60405180910390fd5b80600660008481526020019081526020016000209080519060200190612b519291906133cb565b505050565b6001816000016000828254019250508190555050565b612c06838383604051602401612b8493929190614e34565b6040516020818303038152906040527f5970e089000000000000000000000000000000000000000000000000000000007bffffffffffffffffffffffffffffffffffffffffffffffffffffffff19166020820180517bffffffffffffffffffffffffffffffffffffffffffffffffffffffff8381831617835250505050612c0b565b505050565b60008151905060006a636f6e736f6c652e6c6f679050602083016000808483855afa5050505050565b50505050565b50505050565b6000612c4b82610f4a565b9050612c5b816000846001612c34565b612c6482610f4a565b90506004600083815260200190815260200160002060006101000a81549073ffffffffffffffffffffffffffffffffffffffff02191690556001600360008373ffffffffffffffffffffffffffffffffffffffff1673ffffffffffffffffffffffffffffffffffffffff168152602001908152602001600020600082825403925050819055506002600083815260200190815260200160002060006101000a81549073ffffffffffffffffffffffffffffffffffffffff021916905581600073ffffffffffffffffffffffffffffffffffffffff168273ffffffffffffffffffffffffffffffffffffffff167fddf252ad1be2c89b69c2b068fc378daa952ba7f163c4a11628f55a4df523b3ef60405160405180910390a4612d8a816000846001612c3a565b5050565b6000612daf8473ffffffffffffffffffffffffffffffffffffffff166130c4565b15612f09578373ffffffffffffffffffffffffffffffffffffffff1663150b7a02612dd8611df0565b8786866040518563ffffffff1660e01b8152600401612dfa9493929190614ece565b6020604051808303816000875af1925050508015612e3657506040513d601f19601f82011682018060405250810190612e339190614f2f565b60015b612eb9573d8060008114612e66576040519150601f19603f3d011682016040523d82523d6000602084013e612e6b565b606091505b50600081511415612eb1576040517f08c379a0000000000000000000000000000000000000000000000000000000008152600401612ea890614c83565b60405180910390fd5b805181602001fd5b63150b7a0260e01b7bffffffffffffffffffffffffffffffffffffffffffffffffffffffff1916817bffffffffffffffffffffffffffffffffffffffffffffffffffffffff191614915050612f0e565b600190505b949350505050565b600080600090507a184f03e93ff9f4daa797ed6e38ed64bf6a1f0100000000000000008310612f74577a184f03e93ff9f4daa797ed6e38ed64bf6a1f0100000000000000008381612f6a57612f69614ca3565b5b0492506040810190505b6d04ee2d6d415b85acef81000000008310612fb1576d04ee2d6d415b85acef81000000008381612fa757612fa6614ca3565b5b0492506020810190505b662386f26fc100008310612fe057662386f26fc100008381612fd657612fd5614ca3565b5b0492506010810190505b6305f5e1008310613009576305f5e1008381612fff57612ffe614ca3565b5b0492506008810190505b612710831061302e57612710838161302457613023614ca3565b5b0492506004810190505b60648310613051576064838161304757613046614ca3565b5b0492506002810190505b600a8310613060576001810190505b80915050919050565b61307383836130e7565b6130806000848484612d8e565b6130bf576040517f08c379a00000000000000000000000000000000000000000000000000000000081526004016130b690614c83565b60405180910390fd5b505050565b6000808273ffffffffffffffffffffffffffffffffffffffff163b119050919050565b600073ffffffffffffffffffffffffffffffffffffffff168273ffffffffffffffffffffffffffffffffffffffff161415613157576040517f08c379a000000000000000000000000000000000000000000000000000000000815260040161314e90614fa8565b60405180910390fd5b61316081612240565b156131a0576040517f08c379a000000000000000000000000000000000000000000000000000000000815260040161319790615014565b60405180910390fd5b6131ae600083836001612c34565b6131b781612240565b156131f7576040517f08c379a00000000000000000000000000000000000000000000000000000000081526004016131ee90615014565b60405180910390fd5b6001600360008473ffffffffffffffffffffffffffffffffffffffff1673ffffffffffffffffffffffffffffffffffffffff16815260200190815260200160002060008282540192505081905550816002600083815260200190815260200160002060006101000a81548173ffffffffffffffffffffffffffffffffffffffff021916908373ffffffffffffffffffffffffffffffffffffffff160217905550808273ffffffffffffffffffffffffffffffffffffffff16600073ffffffffffffffffffffffffffffffffffffffff167fddf252ad1be2c89b69c2b068fc378daa952ba7f163c4a11628f55a4df523b3ef60405160405180910390a4613301600083836001612c3a565b5050565b82805461331190613de2565b90600052602060002090601f016020900481019282613333576000855561337a565b82601f1061334c57803560ff191683800117855561337a565b8280016001018555821561337a579182015b8281111561337957823582559160200191906001019061335e565b5b5090506133879190613451565b5090565b50805461339790613de2565b6000825580601f106133a957506133c8565b601f0160209004906000526020600020908101906133c79190613451565b5b50565b8280546133d790613de2565b90600052602060002090601f0160209004810192826133f95760008555613440565b82601f1061341257805160ff1916838001178555613440565b82800160010185558215613440579182015b8281111561343f578251825591602001919060010190613424565b5b50905061344d9190613451565b5090565b5b8082111561346a576000816000905550600101613452565b5090565b6000604051905090565b600080fd5b600080fd5b60007fffffffff0000000000000000000000000000000000000000000000000000000082169050919050565b6134b781613482565b81146134c257600080fd5b50565b6000813590506134d4816134ae565b92915050565b6000602082840312156134f0576134ef613478565b5b60006134fe848285016134c5565b91505092915050565b60008115159050919050565b61351c81613507565b82525050565b60006020820190506135376000830184613513565b92915050565b600081519050919050565b600082825260208201905092915050565b60005b8381101561357757808201518184015260208101905061355c565b83811115613586576000848401525b50505050565b6000601f19601f8301169050919050565b60006135a88261353d565b6135b28185613548565b93506135c2818560208601613559565b6135cb8161358c565b840191505092915050565b600060208201905081810360008301526135f0818461359d565b905092915050565b6000819050919050565b61360b816135f8565b811461361657600080fd5b50565b60008135905061362881613602565b92915050565b60006020828403121561364457613643613478565b5b600061365284828501613619565b91505092915050565b600073ffffffffffffffffffffffffffffffffffffffff82169050919050565b60006136868261365b565b9050919050565b6136968161367b565b82525050565b60006020820190506136b1600083018461368d565b92915050565b6136c08161367b565b81146136cb57600080fd5b50565b6000813590506136dd816136b7565b92915050565b600080604083850312156136fa576136f9613478565b5b6000613708858286016136ce565b925050602061371985828601613619565b9150509250929050565b600080fd5b600080fd5b600080fd5b60008083601f84011261374857613747613723565b5b8235905067ffffffffffffffff81111561376557613764613728565b5b6020830191508360018202830111156137815761378061372d565b5b9250929050565b6000806020838503121561379f5761379e613478565b5b600083013567ffffffffffffffff8111156137bd576137bc61347d565b5b6137c985828601613732565b92509250509250929050565b6000806000606084860312156137ee576137ed613478565b5b60006137fc868287016136ce565b935050602061380d868287016136ce565b925050604061381e86828701613619565b9150509250925092565b600080fd5b7f4e487b7100000000000000000000000000000000000000000000000000000000600052604160045260246000fd5b6138658261358c565b810181811067ffffffffffffffff821117156138845761388361382d565b5b80604052505050565b600061389761346e565b90506138a3828261385c565b919050565b600067ffffffffffffffff8211156138c3576138c261382d565b5b6138cc8261358c565b9050602081019050919050565b82818337600083830152505050565b60006138fb6138f6846138a8565b61388d565b90508281526020810184848401111561391757613916613828565b5b6139228482856138d9565b509392505050565b600082601f83011261393f5761393e613723565b5b813561394f8482602086016138e8565b91505092915050565b60006020828403121561396e5761396d613478565b5b600082013567ffffffffffffffff81111561398c5761398b61347d565b5b6139988482850161392a565b91505092915050565b6000602082840312156139b7576139b6613478565b5b60006139c5848285016136ce565b91505092915050565b6139d7816135f8565b82525050565b60006020820190506139f260008301846139ce565b92915050565b6000613a038261365b565b9050919050565b613a13816139f8565b82525050565b6000602082019050613a2e6000830184613a0a565b92915050565b613a3d81613507565b8114613a4857600080fd5b50565b600081359050613a5a81613a34565b92915050565b60008060408385031215613a7757613a76613478565b5b6000613a85858286016136ce565b9250506020613a9685828601613a4b565b9150509250929050565b600067ffffffffffffffff821115613abb57613aba61382d565b5b613ac48261358c565b9050602081019050919050565b6000613ae4613adf84613aa0565b61388d565b905082815260208101848484011115613b0057613aff613828565b5b613b0b8482856138d9565b509392505050565b600082601f830112613b2857613b27613723565b5b8135613b38848260208601613ad1565b91505092915050565b60008060008060808587031215613b5b57613b5a613478565b5b6000613b69878288016136ce565b9450506020613b7a878288016136ce565b9350506040613b8b87828801613619565b925050606085013567ffffffffffffffff811115613bac57613bab61347d565b5b613bb887828801613b13565b91505092959194509250565b60008060008060408587031215613bde57613bdd613478565b5b600085013567ffffffffffffffff811115613bfc57613bfb61347d565b5b613c0887828801613732565b9450945050602085013567ffffffffffffffff811115613c2b57613c2a61347d565b5b613c3787828801613732565b925092505092959194509250565b60008060408385031215613c5c57613c5b613478565b5b6000613c6a858286016136ce565b9250506020613c7b858286016136ce565b9150509250929050565b600081519050919050565b600082825260208201905092915050565b6000819050602082019050919050565b600082825260208201905092915050565b6000613ccd8261353d565b613cd78185613cb1565b9350613ce7818560208601613559565b613cf08161358c565b840191505092915050565b6000613d078383613cc2565b905092915050565b6000602082019050919050565b6000613d2782613c85565b613d318185613c90565b935083602082028501613d4385613ca1565b8060005b85811015613d7f5784840389528151613d608582613cfb565b9450613d6b83613d0f565b925060208a01995050600181019050613d47565b50829750879550505050505092915050565b60006020820190508181036000830152613dab8184613d1c565b905092915050565b7f4e487b7100000000000000000000000000000000000000000000000000000000600052602260045260246000fd5b60006002820490506001821680613dfa57607f821691505b60208210811415613e0e57613e0d613db3565b5b50919050565b7f4552433732313a20617070726f76616c20746f2063757272656e74206f776e6560008201527f7200000000000000000000000000000000000000000000000000000000000000602082015250565b6000613e70602183613548565b9150613e7b82613e14565b604082019050919050565b60006020820190508181036000830152613e9f81613e63565b9050919050565b7f4552433732313a20617070726f76652063616c6c6572206973206e6f7420746f60008201527f6b656e206f776e6572206f7220617070726f76656420666f7220616c6c000000602082015250565b6000613f02603d83613548565b9150613f0d82613ea6565b604082019050919050565b60006020820190508181036000830152613f3181613ef5565b9050919050565b600081905092915050565b6000613f4f8385613f38565b9350613f5c8385846138d9565b82840190509392505050565b6000613f75828486613f43565b91508190509392505050565b7f4552433732313a2063616c6c6572206973206e6f7420746f6b656e206f776e6560008201527f72206f7220617070726f76656400000000000000000000000000000000000000602082015250565b6000613fdd602d83613548565b9150613fe882613f81565b604082019050919050565b6000602082019050818103600083015261400c81613fd0565b9050919050565b600081905092915050565b50565b600061402e600083614013565b91506140398261401e565b600082019050919050565b600061404f82614021565b9150819050919050565b7f4661696c656420746f207769746864726177204d617469630000000000000000600082015250565b600061408f601883613548565b915061409a82614059565b602082019050919050565b600060208201905081810360008301526140be81614082565b9050919050565b7f546f6b656e20646f6573206e6f74206578697374000000000000000000000000600082015250565b60006140fb601483613548565b9150614106826140c5565b602082019050919050565b6000602082019050818103600083015261412a816140ee565b9050919050565b7f4552433732313a20696e76616c696420746f6b656e2049440000000000000000600082015250565b6000614167601883613548565b915061417282614131565b602082019050919050565b600060208201905081810360008301526141968161415a565b9050919050565b7f4552433732313a2061646472657373207a65726f206973206e6f74206120766160008201527f6c6964206f776e65720000000000000000000000000000000000000000000000602082015250565b60006141f9602983613548565b91506142048261419d565b604082019050919050565b60006020820190508181036000830152614228816141ec565b9050919050565b600061423a8261353d565b6142448185613f38565b9350614254818560208601613559565b80840191505092915050565b600061426c828561422f565b9150614278828461422f565b91508190509392505050565b60006142908385613548565b935061429d8385846138d9565b6142a68361358c565b840190509392505050565b600060208201905081810360008301526142cc818486614284565b90509392505050565b60008190508160005260206000209050919050565b600081546142f781613de2565b6143018186614013565b9450600182166000811461431c576001811461432d57614360565b60ff19831686528186019350614360565b614336856142d5565b60005b8381101561435857815481890152600182019150602081019050614339565b838801955050505b50505092915050565b600061437582846142ea565b915081905092915050565b60008190508160005260206000209050919050565b600081546143a281613de2565b6143ac8186613548565b945060018216600081146143c757600181146143d95761440c565b60ff198316865260208601935061440c565b6143e285614380565b60005b83811015614404578154818901526001820191506020810190506143e5565b808801955050505b50505092915050565b6000602082019050818103600083015261442f8184614395565b905092915050565b7f4e6f7420656e6f756768204d6174696320706169640000000000000000000000600082015250565b600061446d601583613548565b915061447882614437565b602082019050919050565b6000602082019050818103600083015261449c81614460565b9050919050565b7f2e00000000000000000000000000000000000000000000000000000000000000600082015250565b60006144d9600183613f38565b91506144e4826144a3565b600182019050919050565b600081546144fc81613de2565b6145068186613f38565b94506001821660008114614521576001811461453257614565565b60ff19831686528186019350614565565b61453b85614380565b60005b8381101561455d5781548189015260018201915060208101905061453e565b838801955050505b50505092915050565b600061457b828587613f43565b9150614586826144cc565b915061459282846144ef565b9150819050949350505050565b60006145ab82866144ef565b91506145b7828561422f565b91506145c382846144ef565b9150819050949350505050565b7f7b226e616d65223a202200000000000000000000000000000000000000000000600082015250565b6000614606600a83613f38565b9150614611826145d0565b600a82019050919050565b7f222c20226465736372697074696f6e223a2022796f7572206f6666696369616c60008201527f20737562706f72742068616e646c65222c2022696d616765223a20226461746160208201527f3a696d6167652f7376672b786d6c3b6261736536342c00000000000000000000604082015250565b600061469e605683613f38565b91506146a98261461c565b605682019050919050565b7f222c20226c656e677468223a2022000000000000000000000000000000000000600082015250565b60006146ea600e83613f38565b91506146f5826146b4565b600e82019050919050565b7f222c2022726f6c65223a20220000000000000000000000000000000000000000600082015250565b6000614736600c83613f38565b915061474182614700565b600c82019050919050565b7f227d000000000000000000000000000000000000000000000000000000000000600082015250565b6000614782600283613f38565b915061478d8261474c565b600282019050919050565b60006147a3826145f9565b91506147af828761422f565b91506147ba82614691565b91506147c6828661422f565b91506147d1826146dd565b91506147dd828561422f565b91506147e882614729565b91506147f482846144ef565b91506147ff82614775565b915081905095945050505050565b7f646174613a6170706c69636174696f6e2f6a736f6e3b6261736536342c000000600082015250565b6000614843601d83613f38565b915061484e8261480d565b601d82019050919050565b600061486482614836565b9150614870828461422f565b915081905092915050565b7f2028000000000000000000000000000000000000000000000000000000000000600082015250565b60006148b1600283613f38565b91506148bc8261487b565b600282019050919050565b7f2900000000000000000000000000000000000000000000000000000000000000600082015250565b60006148fd600183613f38565b9150614908826148c7565b600182019050919050565b600061491f82856144ef565b915061492a826148a4565b915061493682846144ef565b9150614941826148f0565b91508190509392505050565b7f4e487b7100000000000000000000000000000000000000000000000000000000600052603260045260246000fd5b7f4e487b7100000000000000000000000000000000000000000000000000000000600052601160045260246000fd5b60006149b6826135f8565b91507fffffffffffffffffffffffffffffffffffffffffffffffffffffffffffffffff8214156149e9576149e861497c565b5b600182019050919050565b60006040820190508181036000830152614a0e818561359d565b90508181036020830152614a22818461359d565b90509392505050565b7f4552433732313a207472616e736665722066726f6d20696e636f72726563742060008201527f6f776e6572000000000000000000000000000000000000000000000000000000602082015250565b6000614a87602583613548565b9150614a9282614a2b565b604082019050919050565b60006020820190508181036000830152614ab681614a7a565b9050919050565b7f4552433732313a207472616e7366657220746f20746865207a65726f2061646460008201527f7265737300000000000000000000000000000000000000000000000000000000602082015250565b6000614b19602483613548565b9150614b2482614abd565b604082019050919050565b60006020820190508181036000830152614b4881614b0c565b9050919050565b6000614b5a826135f8565b9150614b65836135f8565b9250827fffffffffffffffffffffffffffffffffffffffffffffffffffffffffffffffff03821115614b9a57614b9961497c565b5b828201905092915050565b7f4552433732313a20617070726f766520746f2063616c6c657200000000000000600082015250565b6000614bdb601983613548565b9150614be682614ba5565b602082019050919050565b60006020820190508181036000830152614c0a81614bce565b9050919050565b7f4552433732313a207472616e7366657220746f206e6f6e20455243373231526560008201527f63656976657220696d706c656d656e7465720000000000000000000000000000602082015250565b6000614c6d603283613548565b9150614c7882614c11565b604082019050919050565b60006020820190508181036000830152614c9c81614c60565b9050919050565b7f4e487b7100000000000000000000000000000000000000000000000000000000600052601260045260246000fd5b60006060820190508181036000830152614cec818661359d565b90508181036020830152614d00818561359d565b9050614d0f60408301846139ce565b949350505050565b6000614d22826135f8565b9150614d2d836135f8565b925082614d3d57614d3c614ca3565b5b828204905092915050565b6000614d53826135f8565b9150614d5e836135f8565b9250817fffffffffffffffffffffffffffffffffffffffffffffffffffffffffffffffff0483118215151615614d9757614d9661497c565b5b828202905092915050565b7f45524337323155524953746f726167653a2055524920736574206f66206e6f6e60008201527f6578697374656e7420746f6b656e000000000000000000000000000000000000602082015250565b6000614dfe602e83613548565b9150614e0982614da2565b604082019050919050565b60006020820190508181036000830152614e2d81614df1565b9050919050565b60006060820190508181036000830152614e4e818661359d565b9050614e5d60208301856139ce565b8181036040830152614e6f818461359d565b9050949350505050565b600081519050919050565b600082825260208201905092915050565b6000614ea082614e79565b614eaa8185614e84565b9350614eba818560208601613559565b614ec38161358c565b840191505092915050565b6000608082019050614ee3600083018761368d565b614ef0602083018661368d565b614efd60408301856139ce565b8181036060830152614f0f8184614e95565b905095945050505050565b600081519050614f29816134ae565b92915050565b600060208284031215614f4557614f44613478565b5b6000614f5384828501614f1a565b91505092915050565b7f4552433732313a206d696e7420746f20746865207a65726f2061646472657373600082015250565b6000614f92602083613548565b9150614f9d82614f5c565b602082019050919050565b60006020820190508181036000830152614fc181614f85565b9050919050565b7f4552433732313a20746f6b656e20616c7265616479206d696e74656400000000600082015250565b6000614ffe601c83613548565b915061500982614fc8565b602082019050919050565b6000602082019050818103600083015261502d81614ff1565b905091905056fe0a2d2d2d2d2d2d2d2d2d2d2d2d2d2d2d2d2d2d2d2d2d2d2d2d2d2d2d2d2d2d2d2d2d2d2d2d2d2d2d2d2d2d2d2d2d2d2d2d2d2d2d2d2d2d2d2d2d2d2d2d2d2d2d2d2d2d2d2d2d2d2d2d2d2d2d2d2d2d2d2d2d2d2d2d2d2d2d2d2d2d2d2d2d2d2d2d2d2d2d2d2d2d2d2d2d2d2d2d2d2d2d2d0a4142434445464748494a4b4c4d4e4f505152535455565758595a6162636465666768696a6b6c6d6e6f707172737475767778797a303132333435363738392b2f697066733a2f2f516d5763454364317274757144726b77576465656f7256564731365a5147616f71325732676445506d39456b42675265676973746572696e67202573206f6e2074686520636f6e7472616374207769746820746f6b656e4944202564a264697066735822122056cf902fee7eed35846f0a4f2358747c30f7b487f5aac10247fea7590b57519d64736f6c634300080a00333c73766720786d6c6e733d22687474703a2f2f7777772e77332e6f72672f323030302f737667222077696474683d2232373022206865696768743d22323730222066696c6c3d2223666666223e3c706174682066696c6c3d2275726c282361292220643d224d302030683237307632373048307a222f3e3c646566733e3c66696c7465722069643d22622220636f6c6f722d696e746572706f6c6174696f6e2d66696c746572733d2273524742222066696c746572556e6974733d227573657253706163654f6e55736522206865696768743d22323730222077696474683d22323730223e3c666544726f70536861646f772064783d2230222064793d22312220737464446576696174696f6e3d22322220666c6f6f642d6f7061636974793d222e323235222077696474683d223230302522206865696768743d2232303025222f3e3c2f66696c7465723e3c2f646566733e3c7061746820636c6173733d22636c732d322220643d224d33362e38382031362e313668312e3239632e30352e30322e30392e30342e31342e303520312e32342e313120322e342e343920332e343820312e313220332e363120322e313120372e323320342e32312031302e383320362e333420322e313320312e323620332e343420332e313420332e393820352e35352e30392e34312e31342e38322e3220312e323476332e3436632d2e30312e30372d2e30342e31342d2e30342e32322d2e303220332e31322d2e303120362e32342d2e303620392e33362d2e303520332e32312d312e343820352e36392d342e323320372e33322d332e3620322e31322d372e323420342e31352d31302e383720362e32312d2e38382e352d312e38322e38342d322e383220316c2d312e30362e3135483337732d2e30392d2e30342d2e31342d2e3034632d312e31312d2e30362d322e31382d2e33312d332e31372d2e38332d312e312d2e35382d322e31372d312e32322d332e32342d312e38352d322e37372d312e36322d352e35372d332e322d382e33312d342e38382d322e35312d312e35342d332e38392d332e38352d342e30322d362e37382d2e312d322e343120302d342e383320302d372e323420302d312e383720302d332e37352e30332d352e36322e30362d332e323920312e352d352e383120342e33342d372e343720332e35352d322e303720372e31342d342e30382031302e37312d362e31322e37362d2e343320312e35362d2e373620322e34312d2e39352e34322d2e30392e38342d2e313520312e32362d2e32325a4d32332e312033372e3133682d2e3034762e3439633020312e38392d2e303220332e37382d2e303120352e3637203020312e33362e363120322e333920312e373620332e312e35382e333620312e31372e363920312e373620312e303320322e393820312e373420352e393620332e343920382e393420352e323320312e31362e363820322e33362e373520332e35332e3120332e36372d322e303620372e33322d342e31352031302e39372d362e323520312e31332d2e363520312e37312d312e363920312e37342d33202e30332d312e32382e30332d322e35362e30342d332e38342e30312d322e38382e30332d352e37362e30332d382e363420302d312e33372d2e362d322e34322d312e37372d332e31322d332e35372d322e312d372e31342d342e31392d31302e37322d362e32372d312e32312d2e372d322e34342d2e36392d332e363520302d332e353620322e30322d372e313220342e30352d31302e363820362e30382d312e32352e37312d312e383920312e382d312e383920332e32332d2e303120322e3036203020342e3133203020362e31395a206d31332e373420322e37762d2e363763302d312e373520302d332e35312d2e30322d352e32362d2e30332d332e30322d2e30362d362e30332d2e312d392e303520302d2e36342e33322d2e39392e39372d31202e33382030202e37362d2e303120312e31332030202e34352030202e38332e32372e39352e372e333220312e313920312e303620322e3120312e393520322e39322e38392e383220312e373920312e363320322e363320322e3520312e333120312e333620312e3938203320322e303420342e392e303620322e30312d2e353120332e38342d312e353920352e35312d2e342e36332d2e393820312e31342d312e343820312e37322d2e32392d2e322d2e35372d2e33382d2e38322d2e35382d2e30362d2e30342d2e30372d2e31382d2e30362d2e32362e31342d2e36342e33352d312e32382e34352d312e39332e32392d312e39382e32332d332e39332d2e37342d352e37352d2e34392d2e39312d312e31372d312e36312d322e31382d312e39342d2e30342d2e30312d2e30382d2e30322d2e31332d2e303476312e3633632e303320312e35362e303820332e31332e3120342e36392e303220312e34362d2e303220322e3932203020342e33382e303320312e36312d2e353920322e39322d312e383220332e39322d322e313220312e37322d342e353120322e322d372e313420312e35322d2e37332d2e31392d312e33362d2e35372d312e38372d312e31332d2e37342d2e382d2e39322d312e37322d2e362d322e37352e33392d312e323420312e322d322e313420322e32382d322e383320312e382d312e313520332e37362d312e353420352e38372d312e32682e31395a222f3e3c646566733e3c6c696e6561724772616469656e742069643d2261222078313d2230222079313d2230222078323d22323730222079323d2232373022206772616469656e74556e6974733d227573657253706163654f6e557365223e3c73746f702073746f702d636f6c6f723d2223323832383238222f3e3c73746f70206f66667365743d2231222073746f702d6f7061636974793d222e3939222f3e3c2f6c696e6561724772616469656e743e3c2f646566733e3c7465787420783d2233322e352220793d223233312220666f6e742d73697a653d223235222066696c7465723d2275726c282362292220666f6e742d66616d696c793d2273796e652c506c7573204a616b617274612053616e732c44656a6156752053616e732c4e6f746f20436f6c6f7220456d6f6a692c4170706c6520436f6c6f7220456d6f6a692c73616e732d73657269662220666f6e742d7765696768743d22626f6c64223e",
  "linkReferences": {},
  "deployedLinkReferences": {}
}